{
  "_format": "hh3-artifact-1",
  "contractName": "Test",
  "sourceName": "contracts/Test.sol",
  "abi": [
    {
      "inputs": [
        {
          "internalType": "uint256",
          "name": "",
          "type": "uint256"
        }
      ],
      "name": "cars",
      "outputs": [
        {
          "internalType": "uint8",
          "name": "groupId",
          "type": "uint8"
        },
        {
          "internalType": "uint32",
          "name": "modelNum",
          "type": "uint32"
        },
        {
          "internalType": "string",
          "name": "carName",
          "type": "string"
        },
        {
          "internalType": "bytes32",
          "name": "hashData",
          "type": "bytes32"
        }
      ],
      "stateMutability": "view",
      "type": "function"
    },
    {
      "inputs": [
        {
          "internalType": "uint8",
          "name": "_groupId",
          "type": "uint8"
        },
        {
          "internalType": "uint32",
          "name": "_modelNum",
          "type": "uint32"
        },
        {
          "internalType": "string",
          "name": "_carName",
          "type": "string"
        }
      ],
      "name": "createCar",
      "outputs": [],
      "stateMutability": "nonpayable",
      "type": "function"
    },
    {
      "inputs": [
        {
          "internalType": "uint256",
          "name": "id",
          "type": "uint256"
        }
      ],
      "name": "getCar",
      "outputs": [
        {
          "components": [
            {
              "internalType": "uint8",
              "name": "groupId",
              "type": "uint8"
            },
            {
              "internalType": "uint32",
              "name": "modelNum",
              "type": "uint32"
            },
            {
              "internalType": "string",
              "name": "carName",
              "type": "string"
            },
            {
              "internalType": "bytes32",
              "name": "hashData",
              "type": "bytes32"
            }
          ],
          "internalType": "struct Test.Car",
          "name": "",
          "type": "tuple"
        }
      ],
      "stateMutability": "view",
      "type": "function"
    },
    {
      "inputs": [],
      "name": "totalCars",
      "outputs": [
        {
          "internalType": "uint256",
          "name": "",
          "type": "uint256"
        }
      ],
      "stateMutability": "view",
      "type": "function"
    }
  ],
  "bytecode": "0x608060405234801561000f575f80fd5b506107538061001d5f395ff3fe608060405234801561000f575f80fd5b506004361061004a575f3560e01c80630f471d8d1461004e578063214e563c146100635780635e8be1901461007e578063f7746e361461009e575b5f80fd5b61006161005c3660046103a1565b6100c1565b005b61006b5f5481565b6040519081526020015b60405180910390f35b61009161008c36600461047d565b610193565b60405161007591906104e1565b6100b16100ac36600461047d565b6102d3565b604051610075949392919061052f565b5f838383426040516020016100d99493929190610567565b60405160208183030381529060405280519060200120905060405180608001604052808560ff1681526020018463ffffffff1681526020018381526020018281525060015f805f81548092919061012f906105b7565b90915550815260208082019290925260409081015f20835181549385015163ffffffff166101000264ffffffffff1990941660ff90911617929092178255820151600182019061017f9082610661565b506060820151816002015590505050505050565b604080516080810182525f808252602082018190526060928201839052918101829052905482106101fc5760405162461bcd60e51b815260206004820152600f60248201526e4e6f204361727320466f756e64212160881b604482015260640160405180910390fd5b5f828152600160208181526040928390208351608081018552815460ff81168252610100900463ffffffff169281019290925291820180549193840191610242906105db565b80601f016020809104026020016040519081016040528092919081815260200182805461026e906105db565b80156102b95780601f10610290576101008083540402835291602001916102b9565b820191905f5260205f20905b81548152906001019060200180831161029c57829003601f168201915b505050505081526020016002820154815250509050919050565b600160208190525f91825260409091208054918101805460ff841693610100900463ffffffff16929190610306906105db565b80601f0160208091040260200160405190810160405280929190818152602001828054610332906105db565b801561037d5780601f106103545761010080835404028352916020019161037d565b820191905f5260205f20905b81548152906001019060200180831161036057829003601f168201915b5050505050908060020154905084565b634e487b7160e01b5f52604160045260245ffd5b5f805f606084860312156103b3575f80fd5b833560ff811681146103c3575f80fd5b9250602084013563ffffffff811681146103db575f80fd5b9150604084013567ffffffffffffffff808211156103f7575f80fd5b818601915086601f83011261040a575f80fd5b81358181111561041c5761041c61038d565b604051601f8201601f19908116603f011681019083821181831017156104445761044461038d565b8160405282815289602084870101111561045c575f80fd5b826020860160208301375f6020848301015280955050505050509250925092565b5f6020828403121561048d575f80fd5b5035919050565b5f5b838110156104ae578181015183820152602001610496565b50505f910152565b5f81518084526104cd816020860160208601610494565b601f01601f19169290920160200192915050565b6020815260ff825116602082015263ffffffff60208301511660408201525f60408301516080606084015261051960a08401826104b6565b9050606084015160808401528091505092915050565b60ff8516815263ffffffff84166020820152608060408201525f61055660808301856104b6565b905082606083015295945050505050565b60f885901b6001600160f81b031916815260e084901b6001600160e01b031916600182015282515f906105a1816005850160208801610494565b6005920191820192909252602501949350505050565b5f600182016105d457634e487b7160e01b5f52601160045260245ffd5b5060010190565b600181811c908216806105ef57607f821691505b60208210810361060d57634e487b7160e01b5f52602260045260245ffd5b50919050565b601f82111561065c575f81815260208120601f850160051c810160208610156106395750805b601f850160051c820191505b8181101561065857828155600101610645565b5050505b505050565b815167ffffffffffffffff81111561067b5761067b61038d565b61068f8161068984546105db565b84610613565b602080601f8311600181146106c2575f84156106ab5750858301515b5f19600386901b1c1916600185901b178555610658565b5f85815260208120601f198616915b828110156106f0578886015182559484019460019091019084016106d1565b508582101561070d57878501515f19600388901b60f8161c191681555b5050505050600190811b0190555056fea2646970667358221220e9edf47f98c68d311d73fd3cbb893f7280c3c108b0b745679e87a101d45d6fed64736f6c63430008140033",
  "linkReferences": {},
  "deployedLinkReferences": {},
  "immutableReferences": {},
  "inputSourceName": "project/contracts/Test.sol",
  "buildInfoId": "solc-0_8_20-cc65fa0d7ee7c9c848eb8cbb96501a39e7ecc896"
}